{"contracts/MockYieldStrategy.sol":{"MockYieldStrategy":{"abi":[{"inputs":[{"internalType":"uint256","name":"amount","type":"uint256"}],"name":"deposit","outputs":[{"internalType":"bool","name":"","type":"bool"}],"stateMutability":"nonpayable","type":"function"},{"inputs":[],"name":"emergencyWithdraw","outputs":[{"internalType":"uint256","name":"","type":"uint256"}],"stateMutability":"nonpayable","type":"function"},{"inputs":[],"name":"getBalance","outputs":[{"internalType":"uint256","name":"","type":"uint256"}],"stateMutability":"view","type":"function"},{"inputs":[],"name":"totalDeposits","outputs":[{"internalType":"uint256","name":"","type":"uint256"}],"stateMutability":"view","type":"function"},{"inputs":[{"internalType":"uint256","name":"amount","type":"uint256"}],"name":"withdraw","outputs":[{"internalType":"bool","name":"","type":"bool"}],"stateMutability":"nonpayable","type":"function"}],"evm":{"bytecode":{"linkReferences":{},"object":"608060405234801561000f575f80fd5b506101c18061001d5f395ff3fe608060405234801561000f575f80fd5b5060043610610055575f3560e01c806312065fe0146100595780632e1a7d4d1461006f5780637d88209714610092578063b6b55f251461009a578063db2e21bc146100ad575b5f80fd5b5f545b6040519081526020015b60405180910390f35b61008261007d366004610134565b6100b8565b6040519015158152602001610066565b61005c5f5481565b6100826100a8366004610134565b610123565b5f805490805561005c565b5f815f5410156101065760405162461bcd60e51b8152602060048201526015602482015274496e73756666696369656e74206465706f7369747360581b604482015260640160405180910390fd5b815f80828254610116919061015f565b9091555060019392505050565b5f815f808282546101169190610178565b5f60208284031215610144575f80fd5b5035919050565b634e487b7160e01b5f52601160045260245ffd5b818103818111156101725761017261014b565b92915050565b808201808211156101725761017261014b56fea26469706673582212205be4f1a0a76b5b2d876bf57b6efe8eebac825be2cdfd228ec1db579967a317c864736f6c63430008180033","opcodes":"PUSH1 0x80 PUSH1 0x40 MSTORE CALLVALUE DUP1 ISZERO PUSH2 0xF JUMPI PUSH0 DUP1 REVERT JUMPDEST POP PUSH2 0x1C1 DUP1 PUSH2 0x1D PUSH0 CODECOPY PUSH0 RETURN INVALID PUSH1 0x80 PUSH1 0x40 MSTORE CALLVALUE DUP1 ISZERO PUSH2 0xF JUMPI PUSH0 DUP1 REVERT JUMPDEST POP PUSH1 0x4 CALLDATASIZE LT PUSH2 0x55 JUMPI PUSH0 CALLDATALOAD PUSH1 0xE0 SHR DUP1 PUSH4 0x12065FE0 EQ PUSH2 0x59 JUMPI DUP1 PUSH4 0x2E1A7D4D EQ PUSH2 0x6F JUMPI DUP1 PUSH4 0x7D882097 EQ PUSH2 0x92 JUMPI DUP1 PUSH4 0xB6B55F25 EQ PUSH2 0x9A JUMPI DUP1 PUSH4 0xDB2E21BC EQ PUSH2 0xAD JUMPI JUMPDEST PUSH0 DUP1 REVERT JUMPDEST PUSH0 SLOAD JUMPDEST PUSH1 0x40 MLOAD SWAP1 DUP2 MSTORE PUSH1 0x20 ADD JUMPDEST PUSH1 0x40 MLOAD DUP1 SWAP2 SUB SWAP1 RETURN JUMPDEST PUSH2 0x82 PUSH2 0x7D CALLDATASIZE PUSH1 0x4 PUSH2 0x134 JUMP JUMPDEST PUSH2 0xB8 JUMP JUMPDEST PUSH1 0x40 MLOAD SWAP1 ISZERO ISZERO DUP2 MSTORE PUSH1 0x20 ADD PUSH2 0x66 JUMP JUMPDEST PUSH2 0x5C PUSH0 SLOAD DUP2 JUMP JUMPDEST PUSH2 0x82 PUSH2 0xA8 CALLDATASIZE PUSH1 0x4 PUSH2 0x134 JUMP JUMPDEST PUSH2 0x123 JUMP JUMPDEST PUSH0 DUP1 SLOAD SWAP1 DUP1 SSTORE PUSH2 0x5C JUMP JUMPDEST PUSH0 DUP2 PUSH0 SLOAD LT ISZERO PUSH2 0x106 JUMPI PUSH1 0x40 MLOAD PUSH3 0x461BCD PUSH1 0xE5 SHL DUP2 MSTORE PUSH1 0x20 PUSH1 0x4 DUP3 ADD MSTORE PUSH1 0x15 PUSH1 0x24 DUP3 ADD MSTORE PUSH21 0x496E73756666696369656E74206465706F73697473 PUSH1 0x58 SHL PUSH1 0x44 DUP3 ADD MSTORE PUSH1 0x64 ADD PUSH1 0x40 MLOAD DUP1 SWAP2 SUB SWAP1 REVERT JUMPDEST DUP2 PUSH0 DUP1 DUP3 DUP3 SLOAD PUSH2 0x116 SWAP2 SWAP1 PUSH2 0x15F JUMP JUMPDEST SWAP1 SWAP2 SSTORE POP PUSH1 0x1 SWAP4 SWAP3 POP POP POP JUMP JUMPDEST PUSH0 DUP2 PUSH0 DUP1 DUP3 DUP3 SLOAD PUSH2 0x116 SWAP2 SWAP1 PUSH2 0x178 JUMP JUMPDEST PUSH0 PUSH1 0x20 DUP3 DUP5 SUB SLT ISZERO PUSH2 0x144 JUMPI PUSH0 DUP1 REVERT JUMPDEST POP CALLDATALOAD SWAP2 SWAP1 POP JUMP JUMPDEST PUSH4 0x4E487B71 PUSH1 0xE0 SHL PUSH0 MSTORE PUSH1 0x11 PUSH1 0x4 MSTORE PUSH1 0x24 PUSH0 REVERT JUMPDEST DUP2 DUP2 SUB DUP2 DUP2 GT ISZERO PUSH2 0x172 JUMPI PUSH2 0x172 PUSH2 0x14B JUMP JUMPDEST SWAP3 SWAP2 POP POP JUMP JUMPDEST DUP1 DUP3 ADD DUP1 DUP3 GT ISZERO PUSH2 0x172 JUMPI PUSH2 0x172 PUSH2 0x14B JUMP INVALID LOG2 PUSH5 0x6970667358 0x22 SLT KECCAK256 JUMPDEST 0xE4 CALL LOG0 0xA7 PUSH12 0x5B2D876BF57B6EFE8EEBAC82 JUMPDEST 0xE2 0xCD REVERT 0x22 DUP15 0xC1 0xDB JUMPI SWAP10 PUSH8 0xA317C864736F6C63 NUMBER STOP ADDMOD XOR STOP CALLER "},"methodIdentifiers":{"deposit(uint256)":"b6b55f25","emergencyWithdraw()":"db2e21bc","getBalance()":"12065fe0","totalDeposits()":"7d882097","withdraw(uint256)":"2e1a7d4d"}}}}}