{"contracts/MockYieldStrategy.sol":{"MockYieldStrategy":{"abi":[{"inputs":[{"internalType":"uint256","name":"amount","type":"uint256"}],"name":"deposit","outputs":[{"internalType":"bool","name":"","type":"bool"}],"stateMutability":"payable","type":"function"},{"inputs":[],"name":"emergencyWithdraw","outputs":[{"internalType":"uint256","name":"","type":"uint256"}],"stateMutability":"nonpayable","type":"function"},{"inputs":[],"name":"getBalance","outputs":[{"internalType":"uint256","name":"","type":"uint256"}],"stateMutability":"view","type":"function"},{"inputs":[],"name":"totalDeposits","outputs":[{"internalType":"uint256","name":"","type":"uint256"}],"stateMutability":"view","type":"function"},{"inputs":[{"internalType":"uint256","name":"amount","type":"uint256"}],"name":"withdraw","outputs":[{"internalType":"bool","name":"","type":"bool"}],"stateMutability":"nonpayable","type":"function"}],"evm":{"bytecode":{"linkReferences":{},"object":"608060405234801561000f575f80fd5b506101e58061001d5f395ff3fe608060405260043610610049575f3560e01c806312065fe01461004d5780632e1a7d4d1461006f5780637d8820971461009e578063b6b55f25146100b2578063db2e21bc146100c5575b5f80fd5b348015610058575f80fd5b505f545b6040519081526020015b60405180910390f35b34801561007a575f80fd5b5061008e610089366004610158565b6100dc565b6040519015158152602001610066565b3480156100a9575f80fd5b5061005c5f5481565b61008e6100c0366004610158565b610147565b3480156100d0575f80fd5b505f805490805561005c565b5f815f54101561012a5760405162461bcd60e51b8152602060048201526015602482015274496e73756666696369656e74206465706f7369747360581b604482015260640160405180910390fd5b815f8082825461013a9190610183565b9091555060019392505050565b5f815f8082825461013a919061019c565b5f60208284031215610168575f80fd5b5035919050565b634e487b7160e01b5f52601160045260245ffd5b818103818111156101965761019661016f565b92915050565b808201808211156101965761019661016f56fea264697066735822122011824ba518f62e2a5cb6ed850625864feb8659b76f8246069d2cedeace8fe1fb64736f6c63430008180033","opcodes":"PUSH1 0x80 PUSH1 0x40 MSTORE CALLVALUE DUP1 ISZERO PUSH2 0xF JUMPI PUSH0 DUP1 REVERT JUMPDEST POP PUSH2 0x1E5 DUP1 PUSH2 0x1D PUSH0 CODECOPY PUSH0 RETURN INVALID PUSH1 0x80 PUSH1 0x40 MSTORE PUSH1 0x4 CALLDATASIZE LT PUSH2 0x49 JUMPI PUSH0 CALLDATALOAD PUSH1 0xE0 SHR DUP1 PUSH4 0x12065FE0 EQ PUSH2 0x4D JUMPI DUP1 PUSH4 0x2E1A7D4D EQ PUSH2 0x6F JUMPI DUP1 PUSH4 0x7D882097 EQ PUSH2 0x9E JUMPI DUP1 PUSH4 0xB6B55F25 EQ PUSH2 0xB2 JUMPI DUP1 PUSH4 0xDB2E21BC EQ PUSH2 0xC5 JUMPI JUMPDEST PUSH0 DUP1 REVERT JUMPDEST CALLVALUE DUP1 ISZERO PUSH2 0x58 JUMPI PUSH0 DUP1 REVERT JUMPDEST POP PUSH0 SLOAD JUMPDEST PUSH1 0x40 MLOAD SWAP1 DUP2 MSTORE PUSH1 0x20 ADD JUMPDEST PUSH1 0x40 MLOAD DUP1 SWAP2 SUB SWAP1 RETURN JUMPDEST CALLVALUE DUP1 ISZERO PUSH2 0x7A JUMPI PUSH0 DUP1 REVERT JUMPDEST POP PUSH2 0x8E PUSH2 0x89 CALLDATASIZE PUSH1 0x4 PUSH2 0x158 JUMP JUMPDEST PUSH2 0xDC JUMP JUMPDEST PUSH1 0x40 MLOAD SWAP1 ISZERO ISZERO DUP2 MSTORE PUSH1 0x20 ADD PUSH2 0x66 JUMP JUMPDEST CALLVALUE DUP1 ISZERO PUSH2 0xA9 JUMPI PUSH0 DUP1 REVERT JUMPDEST POP PUSH2 0x5C PUSH0 SLOAD DUP2 JUMP JUMPDEST PUSH2 0x8E PUSH2 0xC0 CALLDATASIZE PUSH1 0x4 PUSH2 0x158 JUMP JUMPDEST PUSH2 0x147 JUMP JUMPDEST CALLVALUE DUP1 ISZERO PUSH2 0xD0 JUMPI PUSH0 DUP1 REVERT JUMPDEST POP PUSH0 DUP1 SLOAD SWAP1 DUP1 SSTORE PUSH2 0x5C JUMP JUMPDEST PUSH0 DUP2 PUSH0 SLOAD LT ISZERO PUSH2 0x12A JUMPI PUSH1 0x40 MLOAD PUSH3 0x461BCD PUSH1 0xE5 SHL DUP2 MSTORE PUSH1 0x20 PUSH1 0x4 DUP3 ADD MSTORE PUSH1 0x15 PUSH1 0x24 DUP3 ADD MSTORE PUSH21 0x496E73756666696369656E74206465706F73697473 PUSH1 0x58 SHL PUSH1 0x44 DUP3 ADD MSTORE PUSH1 0x64 ADD PUSH1 0x40 MLOAD DUP1 SWAP2 SUB SWAP1 REVERT JUMPDEST DUP2 PUSH0 DUP1 DUP3 DUP3 SLOAD PUSH2 0x13A SWAP2 SWAP1 PUSH2 0x183 JUMP JUMPDEST SWAP1 SWAP2 SSTORE POP PUSH1 0x1 SWAP4 SWAP3 POP POP POP JUMP JUMPDEST PUSH0 DUP2 PUSH0 DUP1 DUP3 DUP3 SLOAD PUSH2 0x13A SWAP2 SWAP1 PUSH2 0x19C JUMP JUMPDEST PUSH0 PUSH1 0x20 DUP3 DUP5 SUB SLT ISZERO PUSH2 0x168 JUMPI PUSH0 DUP1 REVERT JUMPDEST POP CALLDATALOAD SWAP2 SWAP1 POP JUMP JUMPDEST PUSH4 0x4E487B71 PUSH1 0xE0 SHL PUSH0 MSTORE PUSH1 0x11 PUSH1 0x4 MSTORE PUSH1 0x24 PUSH0 REVERT JUMPDEST DUP2 DUP2 SUB DUP2 DUP2 GT ISZERO PUSH2 0x196 JUMPI PUSH2 0x196 PUSH2 0x16F JUMP JUMPDEST SWAP3 SWAP2 POP POP JUMP JUMPDEST DUP1 DUP3 ADD DUP1 DUP3 GT ISZERO PUSH2 0x196 JUMPI PUSH2 0x196 PUSH2 0x16F JUMP INVALID LOG2 PUSH5 0x6970667358 0x22 SLT KECCAK256 GT DUP3 0x4B 0xA5 XOR 0xF6 0x2E 0x2A TLOAD 0xB6 0xED DUP6 MOD 0x25 DUP7 0x4F 0xEB DUP7 MSIZE 0xB7 PUSH16 0x8246069D2CEDEACE8FE1FB64736F6C63 NUMBER STOP ADDMOD XOR STOP CALLER "},"methodIdentifiers":{"deposit(uint256)":"b6b55f25","emergencyWithdraw()":"db2e21bc","getBalance()":"12065fe0","totalDeposits()":"7d882097","withdraw(uint256)":"2e1a7d4d"}}}}}