{
  "_format": "hh-sol-artifact-1",
  "contractName": "GuardianVault",
  "sourceName": "contracts/GuardianVault.sol",
  "abi": [
    {
      "inputs": [
        {
          "internalType": "address",
          "name": "_owner",
          "type": "address"
        },
        {
          "internalType": "address",
          "name": "_registry",
          "type": "address"
        }
      ],
      "stateMutability": "nonpayable",
      "type": "constructor"
    },
    {
      "anonymous": false,
      "inputs": [
        {
          "indexed": true,
          "internalType": "address",
          "name": "agent",
          "type": "address"
        },
        {
          "indexed": true,
          "internalType": "address",
          "name": "strategy",
          "type": "address"
        },
        {
          "indexed": false,
          "internalType": "uint256",
          "name": "amount",
          "type": "uint256"
        }
      ],
      "name": "ActionExecuted",
      "type": "event"
    },
    {
      "anonymous": false,
      "inputs": [
        {
          "indexed": true,
          "internalType": "address",
          "name": "user",
          "type": "address"
        },
        {
          "indexed": false,
          "internalType": "uint256",
          "name": "amount",
          "type": "uint256"
        }
      ],
      "name": "Deposit",
      "type": "event"
    },
    {
      "anonymous": false,
      "inputs": [
        {
          "indexed": false,
          "internalType": "bool",
          "name": "enabled",
          "type": "bool"
        }
      ],
      "name": "ProtectionToggled",
      "type": "event"
    },
    {
      "anonymous": false,
      "inputs": [
        {
          "indexed": true,
          "internalType": "address",
          "name": "strategy",
          "type": "address"
        },
        {
          "indexed": false,
          "internalType": "bool",
          "name": "authorized",
          "type": "bool"
        }
      ],
      "name": "StrategyAuthorized",
      "type": "event"
    },
    {
      "anonymous": false,
      "inputs": [
        {
          "indexed": true,
          "internalType": "address",
          "name": "user",
          "type": "address"
        },
        {
          "indexed": false,
          "internalType": "uint256",
          "name": "amount",
          "type": "uint256"
        }
      ],
      "name": "Withdraw",
      "type": "event"
    },
    {
      "inputs": [
        {
          "internalType": "address",
          "name": "_strategy",
          "type": "address"
        },
        {
          "internalType": "bool",
          "name": "_authorized",
          "type": "bool"
        }
      ],
      "name": "authorizeStrategy",
      "outputs": [],
      "stateMutability": "nonpayable",
      "type": "function"
    },
    {
      "inputs": [
        {
          "internalType": "address",
          "name": "",
          "type": "address"
        }
      ],
      "name": "authorizedStrategies",
      "outputs": [
        {
          "internalType": "bool",
          "name": "",
          "type": "bool"
        }
      ],
      "stateMutability": "view",
      "type": "function"
    },
    {
      "inputs": [],
      "name": "autoProtectionEnabled",
      "outputs": [
        {
          "internalType": "bool",
          "name": "",
          "type": "bool"
        }
      ],
      "stateMutability": "view",
      "type": "function"
    },
    {
      "inputs": [
        {
          "internalType": "address",
          "name": "_strategy",
          "type": "address"
        },
        {
          "internalType": "uint256",
          "name": "_amount",
          "type": "uint256"
        }
      ],
      "name": "executeProtectionAction",
      "outputs": [],
      "stateMutability": "nonpayable",
      "type": "function"
    },
    {
      "inputs": [],
      "name": "killSwitch",
      "outputs": [],
      "stateMutability": "nonpayable",
      "type": "function"
    },
    {
      "inputs": [],
      "name": "owner",
      "outputs": [
        {
          "internalType": "address",
          "name": "",
          "type": "address"
        }
      ],
      "stateMutability": "view",
      "type": "function"
    },
    {
      "inputs": [],
      "name": "registry",
      "outputs": [
        {
          "internalType": "contract GuardianRegistry",
          "name": "",
          "type": "address"
        }
      ],
      "stateMutability": "view",
      "type": "function"
    },
    {
      "inputs": [
        {
          "internalType": "bool",
          "name": "_enabled",
          "type": "bool"
        }
      ],
      "name": "toggleProtection",
      "outputs": [],
      "stateMutability": "nonpayable",
      "type": "function"
    },
    {
      "inputs": [
        {
          "internalType": "uint256",
          "name": "_amount",
          "type": "uint256"
        }
      ],
      "name": "withdraw",
      "outputs": [],
      "stateMutability": "nonpayable",
      "type": "function"
    },
    {
      "stateMutability": "payable",
      "type": "receive"
    }
  ],
  "bytecode": "0x608060405234801561000f575f80fd5b5060405161097038038061097083398101604081905261002e91610080565b5f80546001600160a01b039384166001600160a01b0319909116179055600180546001600160a81b031916919092161790556100b1565b80516001600160a01b038116811461007b575f80fd5b919050565b5f8060408385031215610091575f80fd5b61009a83610065565b91506100a860208401610065565b90509250929050565b6108b2806100be5f395ff3fe608060405260043610610087575f3560e01c80637b103999116100575780637b103999146101695780638da5cb5b146101a0578063a54a0967146101be578063ada14698146101dd578063df91be2d146101f1575f80fd5b806309e3edd3146100c75780632e1a7d4d146100e857806331fa95d914610107578063497cd59c14610126575f80fd5b366100c35760405134815233907fe1fffcc4923d04b559f4d29a8bfc6cda04eb5b0d3c460751c2402c5c5cc9109c9060200160405180910390a2005b5f80fd5b3480156100d2575f80fd5b506100e66100e1366004610760565b610211565b005b3480156100f3575f80fd5b506100e6610102366004610782565b61029b565b348015610112575f80fd5b506100e66101213660046107b4565b610386565b348015610131575f80fd5b506101546101403660046107e9565b60026020525f908152604090205460ff1681565b60405190151581526020015b60405180910390f35b348015610174575f80fd5b50600154610188906001600160a01b031681565b6040516001600160a01b039091168152602001610160565b3480156101ab575f80fd5b505f54610188906001600160a01b031681565b3480156101c9575f80fd5b506100e66101d8366004610802565b61040d565b3480156101e8575f80fd5b506100e66106e5565b3480156101fc575f80fd5b5060015461015490600160a01b900460ff1681565b5f546001600160a01b031633146102435760405162461bcd60e51b815260040161023a9061082a565b60405180910390fd5b60018054821515600160a01b0260ff60a01b199091161790556040517fb535c9c81eedf6e6562b93210814ad2c897023b11175e5b35e895d7511fce8e59061029090831515815260200190565b60405180910390a150565b5f546001600160a01b031633146102c45760405162461bcd60e51b815260040161023a9061082a565b8047101561030b5760405162461bcd60e51b8152602060048201526014602482015273496e73756666696369656e742062616c616e636560601b604482015260640161023a565b5f80546040516001600160a01b039091169183156108fc02918491818181858888f19350505050158015610341573d5f803e3d5ffd5b505f546040518281526001600160a01b03909116907f884edad9ce6fa2440d8a54cc123490eb96d2768479d49ff9c7366125a94243649060200160405180910390a250565b5f546001600160a01b031633146103af5760405162461bcd60e51b815260040161023a9061082a565b6001600160a01b0382165f81815260026020908152604091829020805460ff191685151590811790915591519182527f94ac68571bf58463e204693b1b6822bad4f81d65a660d24576eef757a2128e57910160405180910390a25050565b6001545f546040516332f256cf60e11b81526001600160a01b0391821660048201523360248201529116906365e4ad9e90604401602060405180830381865afa15801561045c573d5f803e3d5ffd5b505050506040513d601f19601f820116820180604052508101906104809190610861565b6104d65760405162461bcd60e51b815260206004820152602160248201527f43616c6c6572206973206e6f7420616e20617574686f72697a6564206167656e6044820152601d60fa1b606482015260840161023a565b600154600160a01b900460ff166105395760405162461bcd60e51b815260206004820152602160248201527f4175746f6e6f6d6f75732070726f74656374696f6e2069732064697361626c656044820152601960fa1b606482015260840161023a565b6001600160a01b0382165f9081526002602052604090205460ff166105a05760405162461bcd60e51b815260206004820152601760248201527f5374726174656779206e6f7420617574686f72697a6564000000000000000000604482015260640161023a565b804710156105e75760405162461bcd60e51b8152602060048201526014602482015273496e73756666696369656e742062616c616e636560601b604482015260640161023a565b60405163b6b55f2560e01b8152600481018290525f906001600160a01b0384169063b6b55f25906024016020604051808303815f875af115801561062d573d5f803e3d5ffd5b505050506040513d601f19601f820116820180604052508101906106519190610861565b9050806106a05760405162461bcd60e51b815260206004820152601760248201527f5374726174656779206465706f736974206661696c6564000000000000000000604482015260640161023a565b6040518281526001600160a01b0384169033907f31887a376564f6953869449babbac62da2ac7d372699a377fdb01f733145ba5c9060200160405180910390a3505050565b5f546001600160a01b0316331461070e5760405162461bcd60e51b815260040161023a9061082a565b6001805460ff60a01b191690556040515f81527fb535c9c81eedf6e6562b93210814ad2c897023b11175e5b35e895d7511fce8e59060200160405180910390a1565b801515811461075d575f80fd5b50565b5f60208284031215610770575f80fd5b813561077b81610750565b9392505050565b5f60208284031215610792575f80fd5b5035919050565b80356001600160a01b03811681146107af575f80fd5b919050565b5f80604083850312156107c5575f80fd5b6107ce83610799565b915060208301356107de81610750565b809150509250929050565b5f602082840312156107f9575f80fd5b61077b82610799565b5f8060408385031215610813575f80fd5b61081c83610799565b946020939093013593505050565b60208082526018908201527f4f6e6c79206f776e65722063616e2063616c6c20746869730000000000000000604082015260600190565b5f60208284031215610871575f80fd5b815161077b8161075056fea2646970667358221220484053721c66a78a09c2db98e1f664e04ecf9d337b2cc06d58dbd3d66a80694864736f6c63430008180033",
  "linkReferences": {},
  "deployedLinkReferences": {}
}