{
  "_format": "hh-sol-artifact-1",
  "contractName": "GuardianVault",
  "sourceName": "contracts/GuardianVault.sol",
  "abi": [
    {
      "inputs": [
        {
          "internalType": "address",
          "name": "_registry",
          "type": "address"
        }
      ],
      "stateMutability": "nonpayable",
      "type": "constructor"
    },
    {
      "anonymous": false,
      "inputs": [
        {
          "indexed": true,
          "internalType": "address",
          "name": "user",
          "type": "address"
        },
        {
          "indexed": true,
          "internalType": "address",
          "name": "agent",
          "type": "address"
        },
        {
          "indexed": true,
          "internalType": "address",
          "name": "strategy",
          "type": "address"
        },
        {
          "indexed": false,
          "internalType": "uint256",
          "name": "amount",
          "type": "uint256"
        }
      ],
      "name": "ActionExecuted",
      "type": "event"
    },
    {
      "anonymous": false,
      "inputs": [
        {
          "indexed": true,
          "internalType": "address",
          "name": "user",
          "type": "address"
        },
        {
          "indexed": false,
          "internalType": "uint256",
          "name": "amount",
          "type": "uint256"
        }
      ],
      "name": "Deposit",
      "type": "event"
    },
    {
      "anonymous": false,
      "inputs": [
        {
          "indexed": true,
          "internalType": "address",
          "name": "user",
          "type": "address"
        },
        {
          "indexed": false,
          "internalType": "bool",
          "name": "enabled",
          "type": "bool"
        }
      ],
      "name": "ProtectionToggled",
      "type": "event"
    },
    {
      "anonymous": false,
      "inputs": [
        {
          "indexed": true,
          "internalType": "address",
          "name": "user",
          "type": "address"
        },
        {
          "indexed": true,
          "internalType": "address",
          "name": "strategy",
          "type": "address"
        },
        {
          "indexed": false,
          "internalType": "bool",
          "name": "authorized",
          "type": "bool"
        }
      ],
      "name": "StrategyAuthorized",
      "type": "event"
    },
    {
      "anonymous": false,
      "inputs": [
        {
          "indexed": true,
          "internalType": "address",
          "name": "user",
          "type": "address"
        },
        {
          "indexed": false,
          "internalType": "uint256",
          "name": "amount",
          "type": "uint256"
        }
      ],
      "name": "Withdraw",
      "type": "event"
    },
    {
      "inputs": [
        {
          "internalType": "address",
          "name": "_strategy",
          "type": "address"
        },
        {
          "internalType": "bool",
          "name": "_authorized",
          "type": "bool"
        }
      ],
      "name": "authorizeStrategy",
      "outputs": [],
      "stateMutability": "nonpayable",
      "type": "function"
    },
    {
      "inputs": [
        {
          "internalType": "address",
          "name": "",
          "type": "address"
        },
        {
          "internalType": "address",
          "name": "",
          "type": "address"
        }
      ],
      "name": "authorizedStrategies",
      "outputs": [
        {
          "internalType": "bool",
          "name": "",
          "type": "bool"
        }
      ],
      "stateMutability": "view",
      "type": "function"
    },
    {
      "inputs": [
        {
          "internalType": "address",
          "name": "",
          "type": "address"
        }
      ],
      "name": "autoProtectionEnabled",
      "outputs": [
        {
          "internalType": "bool",
          "name": "",
          "type": "bool"
        }
      ],
      "stateMutability": "view",
      "type": "function"
    },
    {
      "inputs": [
        {
          "internalType": "address",
          "name": "",
          "type": "address"
        }
      ],
      "name": "balances",
      "outputs": [
        {
          "internalType": "uint256",
          "name": "",
          "type": "uint256"
        }
      ],
      "stateMutability": "view",
      "type": "function"
    },
    {
      "inputs": [],
      "name": "deposit",
      "outputs": [],
      "stateMutability": "payable",
      "type": "function"
    },
    {
      "inputs": [
        {
          "internalType": "address",
          "name": "_user",
          "type": "address"
        },
        {
          "internalType": "address",
          "name": "_strategy",
          "type": "address"
        },
        {
          "internalType": "uint256",
          "name": "_amount",
          "type": "uint256"
        }
      ],
      "name": "executeProtectionAction",
      "outputs": [],
      "stateMutability": "nonpayable",
      "type": "function"
    },
    {
      "inputs": [],
      "name": "killSwitch",
      "outputs": [],
      "stateMutability": "nonpayable",
      "type": "function"
    },
    {
      "inputs": [],
      "name": "registry",
      "outputs": [
        {
          "internalType": "contract GuardianRegistry",
          "name": "",
          "type": "address"
        }
      ],
      "stateMutability": "view",
      "type": "function"
    },
    {
      "inputs": [
        {
          "internalType": "bool",
          "name": "_enabled",
          "type": "bool"
        }
      ],
      "name": "toggleProtection",
      "outputs": [],
      "stateMutability": "nonpayable",
      "type": "function"
    },
    {
      "inputs": [
        {
          "internalType": "uint256",
          "name": "_amount",
          "type": "uint256"
        }
      ],
      "name": "withdraw",
      "outputs": [],
      "stateMutability": "nonpayable",
      "type": "function"
    },
    {
      "stateMutability": "payable",
      "type": "receive"
    }
  ],
  "bytecode": "0x608060405234801561000f575f80fd5b50604051610a0b380380610a0b83398101604081905261002e91610052565b5f80546001600160a01b0319166001600160a01b039290921691909117905561007f565b5f60208284031215610062575f80fd5b81516001600160a01b0381168114610078575f80fd5b9392505050565b61097f8061008c5f395ff3fe608060405260043610610092575f3560e01c80637b103999116100575780637b10399914610189578063ada14698146101bf578063b97e5439146101d3578063d0e30db0146101f2578063e5fed556146101fa575f80fd5b806309e3edd3146100a557806327e235e3146100c45780632e1a7d4d146101025780632feae06b1461012157806331fa95d91461016a575f80fd5b366100a15761009f610228565b005b5f80fd5b3480156100b0575f80fd5b5061009f6100bf3660046107e2565b610283565b3480156100cf575f80fd5b506100ef6100de36600461081f565b60016020525f908152604090205481565b6040519081526020015b60405180910390f35b34801561010d575f80fd5b5061009f61011c366004610838565b6102d8565b34801561012c575f80fd5b5061015a61013b36600461084f565b600360209081525f928352604080842090915290825290205460ff1681565b60405190151581526020016100f9565b348015610175575f80fd5b5061009f610184366004610880565b6103b2565b348015610194575f80fd5b505f546101a7906001600160a01b031681565b6040516001600160a01b0390911681526020016100f9565b3480156101ca575f80fd5b5061009f61041d565b3480156101de575f80fd5b5061009f6101ed3660046108b5565b610462565b61009f610228565b348015610205575f80fd5b5061015a61021436600461081f565b60026020525f908152604090205460ff1681565b335f9081526001602052604081208054349290610246908490610902565b909155505060405134815233907fe1fffcc4923d04b559f4d29a8bfc6cda04eb5b0d3c460751c2402c5c5cc9109c906020015b60405180910390a2565b335f81815260026020908152604091829020805460ff191685151590811790915591519182527fdd4f7253d14453afeab421d80228da14dbe085e05d93a6efec51b0253062b2a691015b60405180910390a250565b335f908152600160205260409020548111156103325760405162461bcd60e51b8152602060048201526014602482015273496e73756666696369656e742062616c616e636560601b60448201526064015b60405180910390fd5b335f908152600160205260408120805483929061035090849061091b565b9091555050604051339082156108fc029083905f818181858888f1935050505015801561037f573d5f803e3d5ffd5b5060405181815233907f884edad9ce6fa2440d8a54cc123490eb96d2768479d49ff9c7366125a9424364906020016102cd565b335f8181526003602090815260408083206001600160a01b03871680855290835292819020805460ff191686151590811790915590519081529192917f61acb339220a4e75036bb69e65cd12538e9c931d64fb233d578dbf6e4b0d7f5f910160405180910390a35050565b335f818152600260209081526040808320805460ff19169055519182527fdd4f7253d14453afeab421d80228da14dbe085e05d93a6efec51b0253062b2a69101610279565b5f546040516332f256cf60e11b81526001600160a01b038086166004830152336024830152859216906365e4ad9e90604401602060405180830381865afa1580156104af573d5f803e3d5ffd5b505050506040513d601f19601f820116820180604052508101906104d3919061092e565b6105375760405162461bcd60e51b815260206004820152602f60248201527f43616c6c6572206973206e6f7420616e20617574686f72697a6564206167656e60448201526e3a103337b9103a3434b9903ab9b2b960891b6064820152608401610329565b6001600160a01b0384165f9081526002602052604090205460ff166105b15760405162461bcd60e51b815260206004820152602a60248201527f4175746f6e6f6d6f75732070726f74656374696f6e2069732064697361626c6560448201526932103337b9103ab9b2b960b11b6064820152608401610329565b6001600160a01b038085165f9081526003602090815260408083209387168352929052205460ff166106255760405162461bcd60e51b815260206004820152601f60248201527f5374726174656779206e6f7420617574686f72697a65642062792075736572006044820152606401610329565b6001600160a01b0384165f9081526001602052604090205482111561068c5760405162461bcd60e51b815260206004820152601960248201527f496e73756666696369656e7420757365722062616c616e6365000000000000006044820152606401610329565b6001600160a01b0384165f90815260016020526040812080548492906106b390849061091b565b909155505060405163b6b55f2560e01b8152600481018390525f906001600160a01b0385169063b6b55f2590859060240160206040518083038185885af1158015610700573d5f803e3d5ffd5b50505050506040513d601f19601f82011682018060405250810190610725919061092e565b9050806107745760405162461bcd60e51b815260206004820152601760248201527f5374726174656779206465706f736974206661696c65640000000000000000006044820152606401610329565b836001600160a01b0316336001600160a01b0316866001600160a01b03167fe0148d8ef2848a148ad10f8382c458353e0392bb081d1358f08add222c23122f866040516107c391815260200190565b60405180910390a45050505050565b80151581146107df575f80fd5b50565b5f602082840312156107f2575f80fd5b81356107fd816107d2565b9392505050565b80356001600160a01b038116811461081a575f80fd5b919050565b5f6020828403121561082f575f80fd5b6107fd82610804565b5f60208284031215610848575f80fd5b5035919050565b5f8060408385031215610860575f80fd5b61086983610804565b915061087760208401610804565b90509250929050565b5f8060408385031215610891575f80fd5b61089a83610804565b915060208301356108aa816107d2565b809150509250929050565b5f805f606084860312156108c7575f80fd5b6108d084610804565b92506108de60208501610804565b9150604084013590509250925092565b634e487b7160e01b5f52601160045260245ffd5b80820180821115610915576109156108ee565b92915050565b81810381811115610915576109156108ee565b5f6020828403121561093e575f80fd5b81516107fd816107d256fea2646970667358221220f8e7fc2f913f9cf3cc40e29f62a3f7892f8b1d78bf1329006ebd3222156780b764736f6c63430008180033",
  "linkReferences": {},
  "deployedLinkReferences": {}
}