{
  "_format": "hh-sol-artifact-1",
  "contractName": "GuardianRegistry",
  "sourceName": "contracts/GuardianRegistry.sol",
  "abi": [
    {
      "inputs": [
        {
          "internalType": "address",
          "name": "_agentIdentity",
          "type": "address"
        }
      ],
      "stateMutability": "nonpayable",
      "type": "constructor"
    },
    {
      "anonymous": false,
      "inputs": [
        {
          "indexed": true,
          "internalType": "address",
          "name": "user",
          "type": "address"
        },
        {
          "indexed": true,
          "internalType": "address",
          "name": "agent",
          "type": "address"
        }
      ],
      "name": "AgentAssigned",
      "type": "event"
    },
    {
      "anonymous": false,
      "inputs": [
        {
          "indexed": true,
          "internalType": "address",
          "name": "agent",
          "type": "address"
        },
        {
          "indexed": false,
          "internalType": "string",
          "name": "metadataURI",
          "type": "string"
        }
      ],
      "name": "AgentRegistered",
      "type": "event"
    },
    {
      "anonymous": false,
      "inputs": [
        {
          "indexed": true,
          "internalType": "address",
          "name": "user",
          "type": "address"
        },
        {
          "indexed": true,
          "internalType": "address",
          "name": "agent",
          "type": "address"
        }
      ],
      "name": "AgentRevoked",
      "type": "event"
    },
    {
      "inputs": [],
      "name": "agentIdentity",
      "outputs": [
        {
          "internalType": "address",
          "name": "",
          "type": "address"
        }
      ],
      "stateMutability": "view",
      "type": "function"
    },
    {
      "inputs": [
        {
          "internalType": "address",
          "name": "",
          "type": "address"
        }
      ],
      "name": "agents",
      "outputs": [
        {
          "internalType": "address",
          "name": "agentAddress",
          "type": "address"
        },
        {
          "internalType": "uint256",
          "name": "tokenId",
          "type": "uint256"
        },
        {
          "internalType": "string",
          "name": "metadataURI",
          "type": "string"
        },
        {
          "internalType": "bool",
          "name": "isActive",
          "type": "bool"
        }
      ],
      "stateMutability": "view",
      "type": "function"
    },
    {
      "inputs": [
        {
          "internalType": "address",
          "name": "_agent",
          "type": "address"
        }
      ],
      "name": "assignAgent",
      "outputs": [],
      "stateMutability": "nonpayable",
      "type": "function"
    },
    {
      "inputs": [
        {
          "internalType": "address",
          "name": "_user",
          "type": "address"
        },
        {
          "internalType": "address",
          "name": "_agent",
          "type": "address"
        }
      ],
      "name": "isAuthorized",
      "outputs": [
        {
          "internalType": "bool",
          "name": "",
          "type": "bool"
        }
      ],
      "stateMutability": "view",
      "type": "function"
    },
    {
      "inputs": [
        {
          "internalType": "address",
          "name": "_agent",
          "type": "address"
        },
        {
          "internalType": "uint256",
          "name": "_tokenId",
          "type": "uint256"
        },
        {
          "internalType": "string",
          "name": "_metadataURI",
          "type": "string"
        }
      ],
      "name": "registerAgent",
      "outputs": [],
      "stateMutability": "nonpayable",
      "type": "function"
    },
    {
      "inputs": [],
      "name": "revokeAgent",
      "outputs": [],
      "stateMutability": "nonpayable",
      "type": "function"
    },
    {
      "inputs": [
        {
          "internalType": "address",
          "name": "",
          "type": "address"
        }
      ],
      "name": "userToAgent",
      "outputs": [
        {
          "internalType": "address",
          "name": "",
          "type": "address"
        }
      ],
      "stateMutability": "view",
      "type": "function"
    }
  ],
  "bytecode": "0x608060405234801561000f575f80fd5b5060405161086c38038061086c83398101604081905261002e91610052565b5f80546001600160a01b0319166001600160a01b039290921691909117905561007f565b5f60208284031215610062575f80fd5b81516001600160a01b0381168114610078575f80fd5b9392505050565b6107e08061008c5f395ff3fe608060405234801561000f575f80fd5b506004361061007a575f3560e01c8063895fbacd11610058578063895fbacd146100c3578063a46c792c146100ed578063a7ba27ab14610100578063fd66091e14610128575f80fd5b80635046fc161461007e57806365e4ad9e146100935780637961803e146100bb575b5f80fd5b61009161008c3660046104ee565b61014b565b005b6100a66100a136600461056e565b610259565b60405190151581526020015b60405180910390f35b6100916102a7565b5f546100d5906001600160a01b031681565b6040516001600160a01b0390911681526020016100b2565b6100916100fb36600461059f565b610355565b6100d561010e36600461059f565b60026020525f90815260409020546001600160a01b031681565b61013b61013636600461059f565b610415565b6040516100b294939291906105b8565b6040518060800160405280856001600160a01b0316815260200184815260200183838080601f0160208091040260200160405190810160405280939291908181526020018383808284375f9201829052509385525050600160209384018190526001600160a01b038981168452818552604093849020865181546001600160a01b031916921691909117815593850151908401555082015160028201906101f290826106bc565b50606091909101516003909101805460ff19169115159190911790556040516001600160a01b038516907fda816ca2fc37b9eecec62ae8263008ec6be1afb38dc28bc9c7c51d7e348da9c29061024b908590859061077c565b60405180910390a250505050565b6001600160a01b038281165f90815260026020526040812054909183811691161480156102a057506001600160a01b0382165f9081526001602052604090206003015460ff165b9392505050565b335f908152600260205260409020546001600160a01b0316806103055760405162461bcd60e51b8152602060048201526011602482015270139bc81859d95b9d08185cdcda59db9959607a1b60448201526064015b60405180910390fd5b335f8181526002602052604080822080546001600160a01b0319169055516001600160a01b03841692917f3855bc4f5f7ba28049e0abd622b6ffbbf63cb46e6b09593b9213c9fd38db5cad91a350565b6001600160a01b0381165f9081526001602052604090206003015460ff166103bf5760405162461bcd60e51b815260206004820181905260248201527f4167656e74206e6f742072656769737465726564206f7220696e61637469766560448201526064016102fc565b335f8181526002602052604080822080546001600160a01b0319166001600160a01b03861690811790915590519092917f7629256eb516bdc80342f65a097d4ecf4c301d15115c1d82f4a639c8c505f02491a350565b600160208190525f91825260409091208054918101546002820180546001600160a01b039094169391929161044990610638565b80601f016020809104026020016040519081016040528092919081815260200182805461047590610638565b80156104c05780601f10610497576101008083540402835291602001916104c0565b820191905f5260205f20905b8154815290600101906020018083116104a357829003601f168201915b5050506003909301549192505060ff1684565b80356001600160a01b03811681146104e9575f80fd5b919050565b5f805f8060608587031215610501575f80fd5b61050a856104d3565b935060208501359250604085013567ffffffffffffffff8082111561052d575f80fd5b818701915087601f830112610540575f80fd5b81358181111561054e575f80fd5b88602082850101111561055f575f80fd5b95989497505060200194505050565b5f806040838503121561057f575f80fd5b610588836104d3565b9150610596602084016104d3565b90509250929050565b5f602082840312156105af575f80fd5b6102a0826104d3565b60018060a01b03851681525f60208560208401526080604084015284518060808501525f5b818110156105f95786810183015185820160a0015282016105dd565b505f60a0828601015260a0601f19601f83011685010192505050821515606083015295945050505050565b634e487b7160e01b5f52604160045260245ffd5b600181811c9082168061064c57607f821691505b60208210810361066a57634e487b7160e01b5f52602260045260245ffd5b50919050565b601f8211156106b757805f5260205f20601f840160051c810160208510156106955750805b601f840160051c820191505b818110156106b4575f81556001016106a1565b50505b505050565b815167ffffffffffffffff8111156106d6576106d6610624565b6106ea816106e48454610638565b84610670565b602080601f83116001811461071d575f84156107065750858301515b5f19600386901b1c1916600185901b178555610774565b5f85815260208120601f198616915b8281101561074b5788860151825594840194600190910190840161072c565b508582101561076857878501515f19600388901b60f8161c191681555b505060018460011b0185555b505050505050565b60208152816020820152818360408301375f818301604090810191909152601f909201601f1916010191905056fea2646970667358221220e0ebc6065bbb1cb97767f245b09421e9170ce09b9a8393715df0028a93a4745164736f6c63430008180033",
  "linkReferences": {},
  "deployedLinkReferences": {}
}