{
  "_format": "hh-sol-artifact-1",
  "contractName": "AgentIdentity",
  "sourceName": "contracts/AgentIdentity.sol",
  "abi": [
    {
      "inputs": [],
      "stateMutability": "nonpayable",
      "type": "constructor"
    },
    {
      "inputs": [
        {
          "internalType": "address",
          "name": "sender",
          "type": "address"
        },
        {
          "internalType": "uint256",
          "name": "tokenId",
          "type": "uint256"
        },
        {
          "internalType": "address",
          "name": "owner",
          "type": "address"
        }
      ],
      "name": "ERC721IncorrectOwner",
      "type": "error"
    },
    {
      "inputs": [
        {
          "internalType": "address",
          "name": "operator",
          "type": "address"
        },
        {
          "internalType": "uint256",
          "name": "tokenId",
          "type": "uint256"
        }
      ],
      "name": "ERC721InsufficientApproval",
      "type": "error"
    },
    {
      "inputs": [
        {
          "internalType": "address",
          "name": "approver",
          "type": "address"
        }
      ],
      "name": "ERC721InvalidApprover",
      "type": "error"
    },
    {
      "inputs": [
        {
          "internalType": "address",
          "name": "operator",
          "type": "address"
        }
      ],
      "name": "ERC721InvalidOperator",
      "type": "error"
    },
    {
      "inputs": [
        {
          "internalType": "address",
          "name": "owner",
          "type": "address"
        }
      ],
      "name": "ERC721InvalidOwner",
      "type": "error"
    },
    {
      "inputs": [
        {
          "internalType": "address",
          "name": "receiver",
          "type": "address"
        }
      ],
      "name": "ERC721InvalidReceiver",
      "type": "error"
    },
    {
      "inputs": [
        {
          "internalType": "address",
          "name": "sender",
          "type": "address"
        }
      ],
      "name": "ERC721InvalidSender",
      "type": "error"
    },
    {
      "inputs": [
        {
          "internalType": "uint256",
          "name": "tokenId",
          "type": "uint256"
        }
      ],
      "name": "ERC721NonexistentToken",
      "type": "error"
    },
    {
      "inputs": [
        {
          "internalType": "address",
          "name": "owner",
          "type": "address"
        }
      ],
      "name": "OwnableInvalidOwner",
      "type": "error"
    },
    {
      "inputs": [
        {
          "internalType": "address",
          "name": "account",
          "type": "address"
        }
      ],
      "name": "OwnableUnauthorizedAccount",
      "type": "error"
    },
    {
      "anonymous": false,
      "inputs": [
        {
          "indexed": true,
          "internalType": "address",
          "name": "owner",
          "type": "address"
        },
        {
          "indexed": false,
          "internalType": "uint256",
          "name": "tokenId",
          "type": "uint256"
        },
        {
          "indexed": false,
          "internalType": "string",
          "name": "tokenURI",
          "type": "string"
        }
      ],
      "name": "AgentMinted",
      "type": "event"
    },
    {
      "anonymous": false,
      "inputs": [
        {
          "indexed": true,
          "internalType": "address",
          "name": "owner",
          "type": "address"
        },
        {
          "indexed": true,
          "internalType": "address",
          "name": "approved",
          "type": "address"
        },
        {
          "indexed": true,
          "internalType": "uint256",
          "name": "tokenId",
          "type": "uint256"
        }
      ],
      "name": "Approval",
      "type": "event"
    },
    {
      "anonymous": false,
      "inputs": [
        {
          "indexed": true,
          "internalType": "address",
          "name": "owner",
          "type": "address"
        },
        {
          "indexed": true,
          "internalType": "address",
          "name": "operator",
          "type": "address"
        },
        {
          "indexed": false,
          "internalType": "bool",
          "name": "approved",
          "type": "bool"
        }
      ],
      "name": "ApprovalForAll",
      "type": "event"
    },
    {
      "anonymous": false,
      "inputs": [
        {
          "indexed": false,
          "internalType": "uint256",
          "name": "_fromTokenId",
          "type": "uint256"
        },
        {
          "indexed": false,
          "internalType": "uint256",
          "name": "_toTokenId",
          "type": "uint256"
        }
      ],
      "name": "BatchMetadataUpdate",
      "type": "event"
    },
    {
      "anonymous": false,
      "inputs": [
        {
          "indexed": false,
          "internalType": "uint256",
          "name": "_tokenId",
          "type": "uint256"
        }
      ],
      "name": "MetadataUpdate",
      "type": "event"
    },
    {
      "anonymous": false,
      "inputs": [
        {
          "indexed": true,
          "internalType": "address",
          "name": "previousOwner",
          "type": "address"
        },
        {
          "indexed": true,
          "internalType": "address",
          "name": "newOwner",
          "type": "address"
        }
      ],
      "name": "OwnershipTransferred",
      "type": "event"
    },
    {
      "anonymous": false,
      "inputs": [
        {
          "indexed": true,
          "internalType": "address",
          "name": "from",
          "type": "address"
        },
        {
          "indexed": true,
          "internalType": "address",
          "name": "to",
          "type": "address"
        },
        {
          "indexed": true,
          "internalType": "uint256",
          "name": "tokenId",
          "type": "uint256"
        }
      ],
      "name": "Transfer",
      "type": "event"
    },
    {
      "inputs": [
        {
          "internalType": "address",
          "name": "to",
          "type": "address"
        },
        {
          "internalType": "uint256",
          "name": "tokenId",
          "type": "uint256"
        }
      ],
      "name": "approve",
      "outputs": [],
      "stateMutability": "nonpayable",
      "type": "function"
    },
    {
      "inputs": [
        {
          "internalType": "address",
          "name": "owner",
          "type": "address"
        }
      ],
      "name": "balanceOf",
      "outputs": [
        {
          "internalType": "uint256",
          "name": "",
          "type": "uint256"
        }
      ],
      "stateMutability": "view",
      "type": "function"
    },
    {
      "inputs": [
        {
          "internalType": "uint256",
          "name": "tokenId",
          "type": "uint256"
        }
      ],
      "name": "getApproved",
      "outputs": [
        {
          "internalType": "address",
          "name": "",
          "type": "address"
        }
      ],
      "stateMutability": "view",
      "type": "function"
    },
    {
      "inputs": [
        {
          "internalType": "address",
          "name": "owner",
          "type": "address"
        },
        {
          "internalType": "address",
          "name": "operator",
          "type": "address"
        }
      ],
      "name": "isApprovedForAll",
      "outputs": [
        {
          "internalType": "bool",
          "name": "",
          "type": "bool"
        }
      ],
      "stateMutability": "view",
      "type": "function"
    },
    {
      "inputs": [
        {
          "internalType": "address",
          "name": "_to",
          "type": "address"
        },
        {
          "internalType": "string",
          "name": "_tokenURI",
          "type": "string"
        }
      ],
      "name": "mintAgent",
      "outputs": [
        {
          "internalType": "uint256",
          "name": "",
          "type": "uint256"
        }
      ],
      "stateMutability": "nonpayable",
      "type": "function"
    },
    {
      "inputs": [],
      "name": "name",
      "outputs": [
        {
          "internalType": "string",
          "name": "",
          "type": "string"
        }
      ],
      "stateMutability": "view",
      "type": "function"
    },
    {
      "inputs": [],
      "name": "owner",
      "outputs": [
        {
          "internalType": "address",
          "name": "",
          "type": "address"
        }
      ],
      "stateMutability": "view",
      "type": "function"
    },
    {
      "inputs": [
        {
          "internalType": "uint256",
          "name": "tokenId",
          "type": "uint256"
        }
      ],
      "name": "ownerOf",
      "outputs": [
        {
          "internalType": "address",
          "name": "",
          "type": "address"
        }
      ],
      "stateMutability": "view",
      "type": "function"
    },
    {
      "inputs": [],
      "name": "renounceOwnership",
      "outputs": [],
      "stateMutability": "nonpayable",
      "type": "function"
    },
    {
      "inputs": [
        {
          "internalType": "address",
          "name": "from",
          "type": "address"
        },
        {
          "internalType": "address",
          "name": "to",
          "type": "address"
        },
        {
          "internalType": "uint256",
          "name": "tokenId",
          "type": "uint256"
        }
      ],
      "name": "safeTransferFrom",
      "outputs": [],
      "stateMutability": "nonpayable",
      "type": "function"
    },
    {
      "inputs": [
        {
          "internalType": "address",
          "name": "from",
          "type": "address"
        },
        {
          "internalType": "address",
          "name": "to",
          "type": "address"
        },
        {
          "internalType": "uint256",
          "name": "tokenId",
          "type": "uint256"
        },
        {
          "internalType": "bytes",
          "name": "data",
          "type": "bytes"
        }
      ],
      "name": "safeTransferFrom",
      "outputs": [],
      "stateMutability": "nonpayable",
      "type": "function"
    },
    {
      "inputs": [
        {
          "internalType": "address",
          "name": "operator",
          "type": "address"
        },
        {
          "internalType": "bool",
          "name": "approved",
          "type": "bool"
        }
      ],
      "name": "setApprovalForAll",
      "outputs": [],
      "stateMutability": "nonpayable",
      "type": "function"
    },
    {
      "inputs": [
        {
          "internalType": "bytes4",
          "name": "interfaceId",
          "type": "bytes4"
        }
      ],
      "name": "supportsInterface",
      "outputs": [
        {
          "internalType": "bool",
          "name": "",
          "type": "bool"
        }
      ],
      "stateMutability": "view",
      "type": "function"
    },
    {
      "inputs": [],
      "name": "symbol",
      "outputs": [
        {
          "internalType": "string",
          "name": "",
          "type": "string"
        }
      ],
      "stateMutability": "view",
      "type": "function"
    },
    {
      "inputs": [
        {
          "internalType": "uint256",
          "name": "tokenId",
          "type": "uint256"
        }
      ],
      "name": "tokenURI",
      "outputs": [
        {
          "internalType": "string",
          "name": "",
          "type": "string"
        }
      ],
      "stateMutability": "view",
      "type": "function"
    },
    {
      "inputs": [],
      "name": "totalAgents",
      "outputs": [
        {
          "internalType": "uint256",
          "name": "",
          "type": "uint256"
        }
      ],
      "stateMutability": "view",
      "type": "function"
    },
    {
      "inputs": [
        {
          "internalType": "address",
          "name": "from",
          "type": "address"
        },
        {
          "internalType": "address",
          "name": "to",
          "type": "address"
        },
        {
          "internalType": "uint256",
          "name": "tokenId",
          "type": "uint256"
        }
      ],
      "name": "transferFrom",
      "outputs": [],
      "stateMutability": "nonpayable",
      "type": "function"
    },
    {
      "inputs": [
        {
          "internalType": "address",
          "name": "newOwner",
          "type": "address"
        }
      ],
      "name": "transferOwnership",
      "outputs": [],
      "stateMutability": "nonpayable",
      "type": "function"
    }
  ],
  "bytecode": "0x608060405234801562000010575f80fd5b50336040518060400160405280601381526020017f48414c4f20477561726469616e204167656e74000000000000000000000000008152506040518060400160405280600581526020016448414c4f4160d81b815250815f9081620000769190620001b7565b506001620000858282620001b7565b5050506001600160a01b038116620000b657604051631e4fbdf760e01b81525f600482015260240160405180910390fd5b620000c181620000c8565b5062000283565b600780546001600160a01b038381166001600160a01b0319831681179093556040519116919082907f8be0079c531659141344cd1fd0a4f28419497f9722a3daafe3b4186f6b6457e0905f90a35050565b634e487b7160e01b5f52604160045260245ffd5b600181811c908216806200014257607f821691505b6020821081036200016157634e487b7160e01b5f52602260045260245ffd5b50919050565b601f821115620001b257805f5260205f20601f840160051c810160208510156200018e5750805b601f840160051c820191505b81811015620001af575f81556001016200019a565b50505b505050565b81516001600160401b03811115620001d357620001d362000119565b620001eb81620001e484546200012d565b8462000167565b602080601f83116001811462000221575f8415620002095750858301515b5f19600386901b1c1916600185901b1785556200027b565b5f85815260208120601f198616915b82811015620002515788860151825594840194600190910190840162000230565b50858210156200026f57878501515f19600388901b60f8161c191681555b505060018460011b0185555b505050505050565b61142c80620002915f395ff3fe608060405234801561000f575f80fd5b5060043610610111575f3560e01c80638da5cb5b1161009e578063b88d4fde1161006e578063b88d4fde14610233578063c505371214610246578063c87b56dd1461024e578063e985e9c514610261578063f2fde38b14610274575f80fd5b80638da5cb5b146101f457806395d89b4114610205578063a22cb4651461020d578063b135dead14610220575f80fd5b806323b872dd116100e457806323b872dd1461019257806342842e0e146101a55780636352211e146101b857806370a08231146101cb578063715018a6146101ec575f80fd5b806301ffc9a71461011557806306fdde031461013d578063081812fc14610152578063095ea7b31461017d575b5f80fd5b610128610123366004610f11565b610287565b60405190151581526020015b60405180910390f35b6101456102b1565b6040516101349190610f79565b610165610160366004610f8b565b610340565b6040516001600160a01b039091168152602001610134565b61019061018b366004610fbd565b610367565b005b6101906101a0366004610fe5565b610376565b6101906101b3366004610fe5565b610404565b6101656101c6366004610f8b565b610423565b6101de6101d936600461101e565b61042d565b604051908152602001610134565b610190610472565b6007546001600160a01b0316610165565b610145610485565b61019061021b366004611037565b610494565b6101de61022e3660046110f7565b61049f565b610190610241366004611155565b610516565b6008546101de565b61014561025c366004610f8b565b61052e565b61012861026f3660046111cc565b6105af565b61019061028236600461101e565b6105dc565b5f6001600160e01b03198216632483248360e11b14806102ab57506102ab82610619565b92915050565b60605f80546102bf906111fd565b80601f01602080910402602001604051908101604052809291908181526020018280546102eb906111fd565b80156103365780601f1061030d57610100808354040283529160200191610336565b820191905f5260205f20905b81548152906001019060200180831161031957829003601f168201915b5050505050905090565b5f61034a82610668565b505f828152600460205260409020546001600160a01b03166102ab565b6103728282336106a0565b5050565b6001600160a01b0382166103a457604051633250574960e11b81525f60048201526024015b60405180910390fd5b5f6103b08383336106ad565b9050836001600160a01b0316816001600160a01b0316146103fe576040516364283d7b60e01b81526001600160a01b038086166004830152602482018490528216604482015260640161039b565b50505050565b61041e83838360405180602001604052805f815250610516565b505050565b5f6102ab82610668565b5f6001600160a01b038216610457576040516322718ad960e21b81525f600482015260240161039b565b506001600160a01b03165f9081526003602052604090205490565b61047a61079f565b6104835f6107cc565b565b6060600180546102bf906111fd565b61037233838361081d565b600880545f91829190826104b283611235565b9190505590506104c284826108e4565b6104cc8184610945565b836001600160a01b03167f4d77f1c1090b0d1a5f71862a2bd913babdeb6321f9e743189ed3d423341fc8e48285604051610507929190611259565b60405180910390a29392505050565b610521848484610376565b6103fe3385858585610994565b606061053982610668565b505f61054f60408051602081019091525f815290565b90505f61055b84610abc565b905081515f0361056c579392505050565b80511561059e578181604051602001610586929190611271565b60405160208183030381529060405292505050919050565b6105a784610b5b565b949350505050565b6001600160a01b039182165f90815260056020908152604080832093909416825291909152205460ff1690565b6105e461079f565b6001600160a01b03811661060d57604051631e4fbdf760e01b81525f600482015260240161039b565b610616816107cc565b50565b5f6001600160e01b031982166380ac58cd60e01b148061064957506001600160e01b03198216635b5e139f60e01b145b806102ab57506301ffc9a760e01b6001600160e01b03198316146102ab565b5f818152600260205260408120546001600160a01b0316806102ab57604051637e27328960e01b81526004810184905260240161039b565b61041e8383836001610bcc565b5f828152600260205260408120546001600160a01b03908116908316156106d9576106d9818486610cd0565b6001600160a01b03811615610713576106f45f855f80610bcc565b6001600160a01b0381165f90815260036020526040902080545f190190555b6001600160a01b03851615610741576001600160a01b0385165f908152600360205260409020805460010190555b5f8481526002602052604080822080546001600160a01b0319166001600160a01b0389811691821790925591518793918516917fddf252ad1be2c89b69c2b068fc378daa952ba7f163c4a11628f55a4df523b3ef91a4949350505050565b6007546001600160a01b031633146104835760405163118cdaa760e01b815233600482015260240161039b565b600780546001600160a01b038381166001600160a01b0319831681179093556040519116919082907f8be0079c531659141344cd1fd0a4f28419497f9722a3daafe3b4186f6b6457e0905f90a35050565b6001600160a01b0383166108465760405163a9fbf51f60e01b81525f600482015260240161039b565b6001600160a01b03821661087857604051630b61174360e31b81526001600160a01b038316600482015260240161039b565b6001600160a01b038381165f81815260056020908152604080832094871680845294825291829020805460ff191686151590811790915591519182527f17307eab39ab6107e8899845ad3d59bd9653f200f220920489ca2b5937696c31910160405180910390a3505050565b6001600160a01b03821661090d57604051633250574960e11b81525f600482015260240161039b565b5f61091983835f6106ad565b90506001600160a01b0381161561041e576040516339e3563760e11b81525f600482015260240161039b565b5f82815260066020526040902061095c82826112e3565b506040518281527ff8e1a15aba9398e019f0b49df1a4fde98ee17ae345cb5f6b5e2c27f5033e8ce79060200160405180910390a15050565b6001600160a01b0383163b15610ab557604051630a85bd0160e11b81526001600160a01b0384169063150b7a02906109d690889088908790879060040161139f565b6020604051808303815f875af1925050508015610a10575060408051601f3d908101601f19168201909252610a0d918101906113db565b60015b610a77573d808015610a3d576040519150601f19603f3d011682016040523d82523d5f602084013e610a42565b606091505b5080515f03610a6f57604051633250574960e11b81526001600160a01b038516600482015260240161039b565b805160208201fd5b6001600160e01b03198116630a85bd0160e11b14610ab357604051633250574960e11b81526001600160a01b038516600482015260240161039b565b505b5050505050565b5f818152600660205260409020805460609190610ad8906111fd565b80601f0160208091040260200160405190810160405280929190818152602001828054610b04906111fd565b8015610b4f5780601f10610b2657610100808354040283529160200191610b4f565b820191905f5260205f20905b815481529060010190602001808311610b3257829003601f168201915b50505050509050919050565b6060610b6682610668565b505f610b7c60408051602081019091525f815290565b90505f815111610b9a5760405180602001604052805f815250610bc5565b80610ba484610d34565b604051602001610bb5929190611271565b6040516020818303038152906040525b9392505050565b8080610be057506001600160a01b03821615155b15610ca1575f610bef84610668565b90506001600160a01b03831615801590610c1b5750826001600160a01b0316816001600160a01b031614155b8015610c2e5750610c2c81846105af565b155b15610c575760405163a9fbf51f60e01b81526001600160a01b038416600482015260240161039b565b8115610c9f5783856001600160a01b0316826001600160a01b03167f8c5be1e5ebec7d5bd14f71427d1e84f3dd0314c0f7b2291e5b200ac8c7c3b92560405160405180910390a45b505b50505f90815260046020526040902080546001600160a01b0319166001600160a01b0392909216919091179055565b610cdb838383610dc4565b61041e576001600160a01b038316610d0957604051637e27328960e01b81526004810182905260240161039b565b60405163177e802f60e01b81526001600160a01b03831660048201526024810182905260440161039b565b60605f610d4083610e25565b60010190505f8167ffffffffffffffff811115610d5f57610d5f611070565b6040519080825280601f01601f191660200182016040528015610d89576020820181803683370190505b5090508181016020015b5f19016f181899199a1a9b1b9c1cb0b131b232b360811b600a86061a8153600a8504945084610d9357509392505050565b5f6001600160a01b038316158015906105a75750826001600160a01b0316846001600160a01b03161480610dfd5750610dfd84846105af565b806105a75750505f908152600460205260409020546001600160a01b03908116911614919050565b5f8072184f03e93ff9f4daa797ed6e38ed64bf6a1f0160401b8310610e635772184f03e93ff9f4daa797ed6e38ed64bf6a1f0160401b830492506040015b6d04ee2d6d415b85acef81000000008310610e8f576d04ee2d6d415b85acef8100000000830492506020015b662386f26fc100008310610ead57662386f26fc10000830492506010015b6305f5e1008310610ec5576305f5e100830492506008015b6127108310610ed957612710830492506004015b60648310610eeb576064830492506002015b600a83106102ab5760010192915050565b6001600160e01b031981168114610616575f80fd5b5f60208284031215610f21575f80fd5b8135610bc581610efc565b5f5b83811015610f46578181015183820152602001610f2e565b50505f910152565b5f8151808452610f65816020860160208601610f2c565b601f01601f19169290920160200192915050565b602081525f610bc56020830184610f4e565b5f60208284031215610f9b575f80fd5b5035919050565b80356001600160a01b0381168114610fb8575f80fd5b919050565b5f8060408385031215610fce575f80fd5b610fd783610fa2565b946020939093013593505050565b5f805f60608486031215610ff7575f80fd5b61100084610fa2565b925061100e60208501610fa2565b9150604084013590509250925092565b5f6020828403121561102e575f80fd5b610bc582610fa2565b5f8060408385031215611048575f80fd5b61105183610fa2565b915060208301358015158114611065575f80fd5b809150509250929050565b634e487b7160e01b5f52604160045260245ffd5b5f67ffffffffffffffff8084111561109e5761109e611070565b604051601f8501601f19908116603f011681019082821181831017156110c6576110c6611070565b816040528093508581528686860111156110de575f80fd5b858560208301375f602087830101525050509392505050565b5f8060408385031215611108575f80fd5b61111183610fa2565b9150602083013567ffffffffffffffff81111561112c575f80fd5b8301601f8101851361113c575f80fd5b61114b85823560208401611084565b9150509250929050565b5f805f8060808587031215611168575f80fd5b61117185610fa2565b935061117f60208601610fa2565b925060408501359150606085013567ffffffffffffffff8111156111a1575f80fd5b8501601f810187136111b1575f80fd5b6111c087823560208401611084565b91505092959194509250565b5f80604083850312156111dd575f80fd5b6111e683610fa2565b91506111f460208401610fa2565b90509250929050565b600181811c9082168061121157607f821691505b60208210810361122f57634e487b7160e01b5f52602260045260245ffd5b50919050565b5f6001820161125257634e487b7160e01b5f52601160045260245ffd5b5060010190565b828152604060208201525f6105a76040830184610f4e565b5f8351611282818460208801610f2c565b835190830190611296818360208801610f2c565b01949350505050565b601f82111561041e57805f5260205f20601f840160051c810160208510156112c45750805b601f840160051c820191505b81811015610ab5575f81556001016112d0565b815167ffffffffffffffff8111156112fd576112fd611070565b6113118161130b84546111fd565b8461129f565b602080601f831160018114611344575f841561132d5750858301515b5f19600386901b1c1916600185901b178555610ab3565b5f85815260208120601f198616915b8281101561137257888601518255948401946001909101908401611353565b508582101561138f57878501515f19600388901b60f8161c191681555b5050505050600190811b01905550565b6001600160a01b03858116825284166020820152604081018390526080606082018190525f906113d190830184610f4e565b9695505050505050565b5f602082840312156113eb575f80fd5b8151610bc581610efc56fea264697066735822122097f3cf99f14b7537f3380f01ce97724a9d1800e34778b31e16db2a9513c795c864736f6c63430008180033",
  "linkReferences": {},
  "deployedLinkReferences": {}
}