{
  "_format": "hh-sol-artifact-1",
  "contractName": "MockYieldStrategy",
  "sourceName": "contracts/MockYieldStrategy.sol",
  "abi": [
    {
      "inputs": [
        {
          "internalType": "uint256",
          "name": "amount",
          "type": "uint256"
        }
      ],
      "name": "deposit",
      "outputs": [
        {
          "internalType": "bool",
          "name": "",
          "type": "bool"
        }
      ],
      "stateMutability": "payable",
      "type": "function"
    },
    {
      "inputs": [],
      "name": "emergencyWithdraw",
      "outputs": [
        {
          "internalType": "uint256",
          "name": "",
          "type": "uint256"
        }
      ],
      "stateMutability": "nonpayable",
      "type": "function"
    },
    {
      "inputs": [],
      "name": "getBalance",
      "outputs": [
        {
          "internalType": "uint256",
          "name": "",
          "type": "uint256"
        }
      ],
      "stateMutability": "view",
      "type": "function"
    },
    {
      "inputs": [],
      "name": "totalDeposits",
      "outputs": [
        {
          "internalType": "uint256",
          "name": "",
          "type": "uint256"
        }
      ],
      "stateMutability": "view",
      "type": "function"
    },
    {
      "inputs": [
        {
          "internalType": "uint256",
          "name": "amount",
          "type": "uint256"
        }
      ],
      "name": "withdraw",
      "outputs": [
        {
          "internalType": "bool",
          "name": "",
          "type": "bool"
        }
      ],
      "stateMutability": "nonpayable",
      "type": "function"
    }
  ],
  "bytecode": "0x608060405234801561000f575f80fd5b506101e58061001d5f395ff3fe608060405260043610610049575f3560e01c806312065fe01461004d5780632e1a7d4d1461006f5780637d8820971461009e578063b6b55f25146100b2578063db2e21bc146100c5575b5f80fd5b348015610058575f80fd5b505f545b6040519081526020015b60405180910390f35b34801561007a575f80fd5b5061008e610089366004610158565b6100dc565b6040519015158152602001610066565b3480156100a9575f80fd5b5061005c5f5481565b61008e6100c0366004610158565b610147565b3480156100d0575f80fd5b505f805490805561005c565b5f815f54101561012a5760405162461bcd60e51b8152602060048201526015602482015274496e73756666696369656e74206465706f7369747360581b604482015260640160405180910390fd5b815f8082825461013a9190610183565b9091555060019392505050565b5f815f8082825461013a919061019c565b5f60208284031215610168575f80fd5b5035919050565b634e487b7160e01b5f52601160045260245ffd5b818103818111156101965761019661016f565b92915050565b808201808211156101965761019661016f56fea264697066735822122011824ba518f62e2a5cb6ed850625864feb8659b76f8246069d2cedeace8fe1fb64736f6c63430008180033",
  "linkReferences": {},
  "deployedLinkReferences": {}
}